:020000040000FA
:1000000002005400000080FBE490020078037901B4
:100010008002F0A3D8FCD9FA7A027B02900084789F
:10002000F079028015E493A3AD82AE838A828B833C
:10003000F0A3AA82AB838D828E83D8E9D9E775823B
:10004000C87583247400120066758203758300747A
:100050000012006675D0007581BF7511007512021F
:10006000759F00020008C09FF59FE473D09F22D0C7
:1000700083D082C09FE493C0E0740193C0E0740217
:1000800093F59F229A99993FFFFFFFFFC5D0BEF6D7
:10009000B1C8CCD8C1F7D6D0B7A2C9FA31D3EB30AA
:1000A000CCF8B1E40A00D2D1BDD3CAD5B5BDCBC41A
:1000B000CEBBC5D0BEF6B1C8CCD8A3ACB8B3D6B50C
:1000C000B5BD62696E617279426974730A00C5D008
:1000D000BEF6B1C8CCD8C1F7D6D0C3BBD3D0B7A277
:1000E000C9FACCF8B1E40A00CBC4CEBBB6FEBDF869
:1000F000D6C6CAE4B3F63A200000002564000A0020
:10010000B2BBCEAABFAACABCD0C5BAC5A3AC6269ED
:100110006E617279426974436F756E74D6C333A38E
:10012000ACBAF3C8FDCEBBD7F3D2C60A00BFAACA89
:10013000BCBCECB2E2BDD3CAD5A3BA0A00BDE1CAC9
:10014000F8BCECB2E2BDD3CAD50A00000000000042
:10015000000000000000000000000000000000009F
:100160000000000000000000000000BDD3CAD5B5AB
:10017000BDCAAEBDF8D6C6CAFDD7D6A3BA25640A95
:10018000000000000000000000BDD3CAD5BCECB2E6
:10019000E2B9E2C7BF4C783A25660A00B7A2CBCDD8
:1001A000B6CBB7A2CBCD3A20310A00B7A2CBCDB6A1
:1001B000CBB7A2CBCD3A20300A00010001000100EC
:1001C000000001000100000000000100000001002B
:1001D000000000000000000001000000000001001D
:1001E000000000000000010001000000010000000C
:1001F00000000000010000000100000001000100FB
:1002000000000000010001000100010000000000EA
:1002100000000100000000000100010048423031F0
:100220003233343536373839414243444546002865
:100230006E756C6C20706F696E7465722900303158
:100240003233343536373839616263646566003F6E
:100250003F3F000000807F0000803F00000000F969
:10026000021550B743BA510000204100E7DB2E00D1
:1002700000A04012006FE8270012006F0C28001247
:10028000006F7B280012006F89280012006FD92AA6
:100290000012006FF7280012006F76290012006F1D
:1002A00092260012006FB2260012006FD5260012AF
:1002B000006FF6260012006F15270012006F7B27D3
:1002C0000012006F931E0012006F602A0012006F70
:1002D000792A0012006F842A0012006F2D0E00127E
:1002E000006F40130012006FAD2A0012006FCA2980
:1002F0000012006FF42900C008C3E096F50808A3B7
:10030000E096420808A3E096420808A3E096420857
:10031000A2D265D033E5087001D3D00822080808BE
:10032000E630E711120B57120335080808C644805F
:10033000C618181822181818E9799EC608CAC608DF
:10034000CBC608CCC6C370207996CACBCC701979BD
:100350008ECBCC70137986CC700EF9802ACA33CA42
:10036000CB33CBCC33CC331930E7F2CCCBCA3350C0
:10037000147004EA30E00DE4CA3ACACB3BCBCC3C63
:10038000CC500209C3E913C6CC182313C6CB18C638
:10039000CA18C6F9221203D520F01430E72B74FFD7
:1003A000FCFBFA747F8022E4FCFBFA7480801AB4B0
:1003B0008008BC00F2BB00EF800F50EBF9E4C39A59
:1003C000FAE49BFBE49CFCE499C6CC18C6CB18C6A7
:1003D000CA18C6F922E4C9C608CAC608CBC6D333B0
:1003E0000308CCC63392F0C3947F402E9418401972
:1003F000C9B90704CACBCC225025C309CA33CACB1A
:1004000033CBCC33CC33D9F422F4600DC9CCC31335
:10041000CB13CBCA13CAD9F6CC22E4FCFBFA2214C4
:10042000FCFBFA22E62618461846184622E727194A
:10043000471947194722181818E60846087009E6B0
:1004400026087005E633F4220822191919E709472E
:10045000097009E727097005E733F4220922E60845
:100460004608C3134608336002E633F422E709471F
:1004700009C3134709336002E733F42212045E60B4
:100480002512046D6020120424700302042D080854
:1004900008E76670101819E766700A1819E76670A1
:1004A000041819E76622F42212045E601C12046D1F
:1004B0006017120424700712042D7001D322C0D0DB
:1004C00012042D7006D0D0B322C32233D0D05014E2
:1004D00030E0F6C3E7960809E7960809E7960809A9
:1004E000E796B32220E0D5E6970809E6970809E6E3
:1004F000970809E697B32212045E601B12046D6030
:1005000016120424700712042D600CB322C0D012FE
:10051000042D7005D0D022C32233D0D0501330E048
:10052000EBC3E7960809E7960809E7960809E796F6
:100530002220E0E4E6970809E6970809E69708090B
:10054000E697220012045E604F12046D6012E754B9
:100550008066F6120436701112042D703B090909E9
:10056000F4F618F618F618F62212044A701512045A
:100570002408080860EAE6447FF618768018E4F656
:1005800018F622120424601612042D7012E4F608E4
:10059000F608F608E65480F609090918181822EA40
:1005A000C0E0EBC0E0ECC0E0EDC0E0E687F0A4FB0B
:1005B000ACF008E687F0A42CFCE435F0FA1809E664
:1005C00087F0A42C4B60027401CA35F0FCE433FBC5
:1005D00009E687F0D2F7A42CCB35F0FC1908E687A2
:1005E000F0A42BCC35F0FBE433FD0819E687F0D2FC
:1005F000E7A42C4ACB35F0CD3400FC09E687F0D2D5
:10060000E7A42DCC35F0FDE433FA0918E687F0D2E3
:10061000F7A42CCD35F0CA3400FC08E687F0D2E709
:10062000D2F7A42ACC35F07A7E20E70B0ACB33CB65
:10063000CD33CDCC33CC33CB3350147004ED30E01C
:100640000ED2F1E4CD3DCDCC3CCC3B5005DA05C219
:10065000F1EB547FC63308E63392F0FBE73309E74A
:1006600033C39A502D2B70190C0D4C4D7015180674
:10067000E608C333700D20F10AA2F013F6E41880E7
:100680000B4024E4F630F002768018F618F618F6DF
:100690008024D33B14501074FFA2F013F618768018
:1006A000E418F618F6800FA2F013F618E63303F6F6
:1006B00018ECF618EDF6D0E0FDD0E0FCD0E0FBD071
:1006C000E0FA2212046D604612045E603DE9687033
:1006D00008F618F618F618F622748067F71206F76F
:1006E000090909748067F72212045E601D12046D07
:1006F0007005191919801A120436701F12044AC3A2
:100700007003E667331919194007181818220808EA
:100710000874FFF618F618F618F62212044A601745
:1007200012042D702192F01204247019501720F039
:1007300014080808090909E7F61819E7F61819E76F
:10074000F61819E7F62212042460E6E869701F081B
:1007500008E62480F608E436F618547FB47F0CE6E9
:1007600054806007F6E418F618F622181822E9C635
:10077000CC08C6CD08C6CE08C6CFC0E0E8C0E0EAC7
:10078000C0E0EBC0E009E9F809E7FA09E7FBE6F9A0
:1007900018E6F8C3EC98ED99EE9AEBC2E7F5F0EFA6
:1007A000C2E795F0500E600CEBCFFBEACEFAE9CD34
:1007B000F9E8CCF8EAA2E7D2E7FAEB33FB13F5F05D
:1007C000EEA2E7D2E7FEEF33FFC5F013A2E730E673
:1007D00001B313C5F0C3C0E0C0F07F00C39BFB6052
:1007E0005E9418600F401D14601AD0E023F9D0E029
:1007F000F80208C98AF0E9486003D2F0E4AFF0FAE1
:10080000F9F8803BEB30E40D89F0EA6003D2F0E4C4
:10081000AFF0F9CAF8EB30E30D88F0EF6002D2F0E8
:10082000AFF0E4CAC9F8EB54076014FBC3EA13FA4B
:10083000E913F9E813F8EF135002D2E0FFDBEDD033
:10084000E0C0E030E739C3E49FFFF5F0EC98FC42EC
:10085000F0ED99FD42F0EE9AFE42F0D0E0F9D0E0E2
:10086000F8E5F0607AE923F9EE20E742D8028067E4
:10087000C3EF33FFEC33FCED33FDEE33FE80EAECE7
:1008800028FCED39FDEE3AFED0E023F9D0E0F84047
:1008900002801BC3EE13FEED13FDEC13FCEF1350AF
:1008A00002D2E0FF08B800067F7F74FF802EEF338E
:1008B00050178CF020F00260100CBC000C0DBD0035
:1008C000080EBE000408E860DFE933E813FFEE23FA
:1008D00013FE4F4D4C8008E95480FFE4FEFDFCEE12
:1008E00033EF33F47004FCFD7E80D0E0FBD0E0FAFF
:1008F000D0E0F8D0E0CFC618CEC618CDC618CCC60A
:10090000F92212045E70041818182212046D700D7A
:1009100074FFF61819F61819F61819F622E754801C
:1009200066F6120424700F12042D70F014F608F607
:1009300008F608F680D112042D700CF608F6087639
:100940008008E6447F80EC12044D700C120439607C
:10095000BFE65480F6E480BB1204397005191919FA
:1009600080A5E869700C763F18768018F618F6E8CE
:10097000F922E6CDC0E018ECC0E0E633CD33CDD3AC
:1009800013F6E719FCE7191933CC33C3947F400EF3
:10099000CD9D502408E65480F6E418F6800FF40448
:1009A0003D14501408E6447FF6187680E418F618D3
:1009B000F6D0E0FCD0E0FD22CCD313CCFD18E4C689
:1009C000CBC0E018E4C6CAC0E00808ED08C633E6AC
:1009D00013F618E433C675F003C3CA97CA09CB9758
:1009E000CB199C40047D08802EBD0003020AAB1683
:1009F000B6FF050606081618C3CA33CACB33CB3375
:100A0000CA27CA09CB37CB193CC37D08803E187D65
:100A10000820E75CC633C6CA33CACB33CB33DDF11B
:100A2000D5F0EB30E77BCA97CA09CB974ACB199C24
:100A3000406F4B7025E620E0218066187D08C3CA10
:100A400097CA09CB97CB199CD3C633C6CA33CACB36
:100A500033CB3350C9DDE7D5F0E1D3E4C636C60861
:100A6000C636C608C636C608C636C6181818803137
:100A7000C3CA97CA09CB97CB199CB34097C633C654
:100A8000CA33CACB33CB33DD34D5F02EC6A2E0C691
:100A900040C8CA27CA09CB37194A70BECB3CB480BC
:100AA000B90808E63308E633601F181818D0E0FAD2
:100AB000D0E0FBD0E0FCD0E0FD22187D08CA27CAB8
:100AC00009CB37CB193CD3808013F618E4B67F11DD
:100AD000F618B6FF0EF618C60470D20808768080A5
:100AE000CAF618F618F680C5E4CFC0E0E4CEC0E040
:100AF000E4CDC0E0E4CCC0E075F020E626F608E6E0
:100B000033F608E633F608E633F6181818EC33FC2B
:100B1000ED33FDEE33FEEF33FFC3EC9709ED97099C
:100B2000EE9709EF97191919400FFFEC97FC09EDA3
:100B300097FD09EE97FE191906D5F0BFECF709ED00
:100B4000F709EEF709EFF7191919D0E0FCD0E0FD2D
:100B5000D0E0FED0E0FF22181818E4C396F608E4AF
:100B600096F608E496F608E496F622601608080859
:100B7000C6C313C618C613C618C613C618C613C6EE
:100B8000D5E0EA22E627F60809E637F60809E6374F
:100B9000F60809E637F622E026F608A3E036F6085E
:100BA000A3E036F608A3E036F622E0F608A3E0F666
:100BB00008A3E0F608A3E0F622E6F008A3E6F008B2
:100BC000A3E6F008A3E6F022E0FAA3E0FBA3E0FC32
:100BD000A3E0FD22E0F8A3E0F9A3E0FAA3E0FB2202
:100BE000E8F0A3E9F0A3EAF0A3EBF022CAC0E0E644
:100BF000F0A308DAFAD0E0FA22CAC0E0E0A3C58286
:100C0000CCC582C583CDC583F0A3C582CCC582C5C2
:100C100083CDC583DAE6D0E0CA22C3E498F8E4992C
:100C2000F9120C5B8026C3E49AFAE49BFBE920E707
:100C3000E9120C5BE498F8E499F922C3E498F8E42B
:100C400099F9120C5BE498F8E499F9C3E49AFAE490
:100C50009BFB22EB20E7CFE920E7E0B90010BB00C7
:100C600008E88AF084F8AAF022E4FBC8FA22EB70C4
:100C7000227B10C833C8C933C9335007C39AC3DBBA
:100C8000F280069A50012ADBEAC833F4C8C933F46B
:100C9000C9FA2275F008E4C833C8C933C933C99A00
:100CA000C99B5004C92AC93BD5F0ECFBC833F4C832
:100CB000E4C9FA22700422600D18C6C333C608C600
:100CC00033C6D5E0F41822251110AF08F511400CF9
:100CD00015128008F51140021512D2AF2200C0D0C3
:100CE000251110AF08F511500C05128008F51150B0
:100CF000020512D2AFD0D0222511F58210AF08F52F
:100D000011400C15128008F51140021512D2AF8562
:100D10001283222511F582E43512F583222511F87C
:100D2000E43512F9222511FAE43512FB222511FCD3
:100D3000E43512FD22E4732511C582C0E0E51234CA
:100D4000FFC583C0E0E511C3958224F810AF088584
:100D500083128582118008858312858211D2AFCEDD
:100D6000F0A3E520F0A37808E608F0A3DEFAEFF0A0
:100D7000A3E58124FAF8E608F0A3E608F0A3E60864
:100D8000F0A30808E608F0A3E608F0A31581158192
:100D9000D0E0FED0E0F8158115811581E8C0E0EEC5
:100DA000C0E022851283851182E0A3FEE0A3F52036
:100DB0007808E0A3F608DFFAE0A3FFE0A3C0E0E0D4
:100DC000A3C0E0E0A3C0E0E0A3C0E0E0A3C0E01067
:100DD000AF08858211858312800885821185831270
:100DE000D2AFD083D08202006C740480067402807B
:100DF000027401C0E0F404120CF8D0E0120BEC22F3
:100E000074028000CCC0E0EDC0E0E511C39CCCAD25
:100E10001250011D10AF068C118D1280068C118DA1
:100E200012D2AF120BF9D0E0FDD0E0FC2274F01228
:100E30000D3774FD120CC77402120D13E9F08A0805
:100E40008B098C0A8D0B7415120D13E0FEA3E0FFC5
:100E5000851182851283E4F0A3F08E828F83A3AA8A
:100E600082AB839003D1780C120BAA7808790C120C
:100E7000047C70118E828F837469121318746EF063
:100E8000A3746680187808790812047C60188E8232
:100E90008F83746E1213187461F0A3746EF0A30A3A
:100EA0000AAB830212B79003D5780C120BAA78080C
:100EB000790C1204A85003020F5A9003D9780C122F
:100EC0000BAA7808790C12047C6003020FAE741729
:100ED000120D13E07003020FF0851182851283C09A
:100EE00082C0837413120D13121D6CD083D0821232
:100EF00012F1502F851182851283C3E094FCA3E088
:100F000094FFA2D265D033401A7402120D13E4127A
:100F10001E5CF8A3E0F97413120D13C3E098F0A35C
:100F2000E099F07413120D1312130E7418120D13AE
:100F3000E07003020FED7417120D13E4020FEF902F
:100F400003DD780C120BAA7808790C1209028511BE
:100F500082851283E0240A121E7A9003E1780C1233
:100F60000BAA7808790C1204A840D49003E5780CF9
:100F7000120BAA7808790C1204A84003020ECE9036
:100F800003E5780C120BAA7808790C120902121EDC
:100F90007180D89003DD780C120BAA7808790C12B6
:100FA0000543851182851283E024F6121311900304
:100FB000E9780C120BAA7808790C1204F740D49047
:100FC00003D5780C120BAA7808790C1204F74003A9
:100FD000020ECE9003E5780C120BAA7808790C1259
:100FE000054385118285128312130E80D27401F09D
:100FF0007402120D13E060057A0002107D1212FDDA
:10100000507F8E828F837430F0EAFEEBFF741312F0
:101010000D13E0FCA3E0FDEC4D70087418120D13E5
:10102000E0600B8E828F83742EF0A30EAF837A0064
:101030007B0080118E828F837430121339741312E7
:101040000D1312130EEA24FF1AEB34FFFB851182F5
:101050008512831212E5500C7413120D13121D6CBD
:10106000E84970D085118285128374FFC39CF8749F
:10107000FF9DF91212F150030211CF7A017B00801B
:101080007B851182851283121D6CC3E498FAE49962
:10109000FB806985080C85090D850A0E850B0F7884
:1010A0000C120395AC0CE50D3395E0F50EF50F78B9
:1010B0000C12031D7808790C1206C39003E5780C16
:1010C000120BAA7808790C120543EC121333EAF8D4
:1010D000EBF9E824010AE439FBE849701F741312A4
:1010E0000D13121D6CE84970087418120D13E0609E
:1010F0000B8E828F83742EF0A30EAF837413120DA8
:10110000131212E5508D9003ED780C120BAA78089B
:10111000790C1204A840030211CF7C01EE24FFF8E1
:10112000EF34FFF97415120D13E0F508A3E0F5098B
:1011300088828983E0642E6010E02CF0643A7007A6
:101140007430F07C0180027C00E8FAE9FBEA24FFBD
:1011500018EB34FFF9C3E5089AE5099B40D2ECA2ED
:10116000E0506C7402120D13E0603BEEF8EF800D5E
:10117000EC88828983F0E824FF18E934FFF9C3E59D
:101180000898E50999501A1212C1E0FC742E6C708F
:10119000DFE824FEF582E934FFF5831212CEF980F0
:1011A000D5121E71801E8E828F83A3AE82AF83EE16
:1011B000F8EF80061212C11212CEF9C3E50898E5C5
:1011C000099940F07415120D13121D967431F074C4
:1011D00017120D13E07005801C1EAF83EE24FFF57F
:1011E00082EF34FFF583E0F874306860EC742E68A9
:1011F00070031EAF837402120D13E070030212B36A
:10120000121335A3A9831212FD8E828F835014749A
:101210002DF00EE9FF851182851283121DAE121387
:10122000268006742BF00EE9FF7C007D00EE240A78
:10123000FE50010F0CEC70010D1212D7120C53EA84
:101240001213331212D7120C53851182851283E8C0
:10125000F0A3E9121E5C4970DBC3EC9402ED121D91
:101260002B40D1ECFAEDFBC3E49CF8E49DF9EE28A9
:10127000F582EF39F583E0C0E0C3E49AF8E49BF926
:10128000EE28F8EF39F9E82CF8E93DF9E824F5F50E
:1012900082E934FFF583D0E0F0EC24FF1CED34FF4D
:1012A000FDC3EC9401ED121D2B50BCEE24F6FEEFB5
:1012B00034FFFFEEFAEFFB7403120CDD7F08020D22
:1012C000A3E824FFFAE934FFFB8A828B8322E088BB
:1012D000828983F018EB22851182851283121DF416
:1012E0007A0A7B0022C3E09AA3E09BA2D265D033A6
:1012F00022C3E098A3E099A2D265D033228511825F
:10130000851283C3A3E09400A2D265D03322E024E7
:10131000FFF0A3E034FFF022F0EAFEEBFF8E828FB5
:101320008322A3E03400F9851182851283E8F0A3BB
:10133000E9F02224308E828F83F0A3AE82AF832225
:1013400074F0120D3774AE120CC7851182851283AA
:10135000121E2A7417120D13ECF0A3EDF0740F1285
:101360000D13E4F0A3801B7462120D13121D5C7444
:1013700017120D13121D96120D35740F120D131244
:101380001D33F0121DD0F9851182851283E02401EE
:10139000FAA3E03400FB851182851283121E2A74A1
:1013A00025696010E970C0740F120D13121D5C7472
:1013B000520212B9121DD06425701985118285124E
:1013C00083E02401081213227462120D13121D5CB3
:1013D0007925809B740E120D13E4F0740D120D1319
:1013E000E4F0740C120D13E4F07405120D13E4F024
:1013F0007420120D1D7402120D1312132D741E127F
:101400000D13749CF0A3740380197405120D13E07E
:1014100070077405120D13EAF0851182851283E8B6
:10142000F0A3E9121E5C121D20121DC5FA24E06013
:10143000D924FD601724F860D924FE600624FD60DD
:101440000F8011740C120D13E00480CC740D80F524
:10145000740E80F1121DC5642A705C7464120D1341
:10146000121DCBFAA3E0FB8A828B83E0FCA3E0FD94
:10147000740A120D13ECF0A3EDF0EA2402FA500105
:101480000B7464120D13121E22740A120D13121320
:1014900003501F740A120D13121D5CC3E49AFAE480
:1014A0009BFB740A120D13121E2A740C120D13E00A
:1014B00004F01213278043740A120D13E4F0A38082
:1014C0002D740A120D13121D5CEA75F00AA4FAA914
:1014D000F075F00AEBA429FBEA28F8E43BF9E824CC
:1014E000D0F8E934FFF9740A120D13121E81121E8E
:1014F00069F874D028C3940A40C7740C120D13E025
:101500006007740E120D13E4F0121DD0642E707972
:10151000851182851283E0240108121D80E8F0A362
:10152000E9121E69642A70267464120D13121DE9F3
:1015300088828983E0FEA3E0FFE82402F8500109D5
:101540007464120D13121DB8121E81F0803F7E00CC
:101550007F00121DDD74D028C3940A5030EE75F060
:101560000AA4FEA9F075F00AEFA429FFEE28F8E41A
:101570003FF9E824D0FEE934FFFF8511828512830C
:10158000E02401F812132280C97EFF7FFF7A0085D4
:101590001182851283E02401F8121D80E0FBA3E094
:1015A000F5838B82E024B4600824E4600624FC7098
:1015B000057A01121327121DDD851182851283E041
:1015C0002401FCA3E03400FD851182851283ECF038
:1015D000A3EDF07404120D13E8F07003021BC7248E
:1015E000BB7003021A9024FE7003021A7224EF707B
:1015F000030217C124F570030216B7147003021812
:101600006C147003021A90147003021A8E14700383
:10161000021A7224FE700302186C24FB60241470FA
:10162000030217A51470030217C124FD70030216EC
:10163000EE24FE70030217C124FD70030217B502E9
:101640001BD37464120D13121E10120D13121E38C8
:10165000120D13121DE9E8FCE9FD7406120D13E0EA
:101660002402F508A3E03400F509EAA2E0740F5063
:101670002F120D13121D6C3395E0FA8C828D83E8C6
:10168000FCE9FDEAFEECF0A3EDF0A3EEF0A3F074AC
:1016900064120D13121D96E508F0A3E509021382EA
:1016A000120D13121D6C8C828D8312132D74641213
:1016B0000D13121DB880E07464120D13121DE31295
:1016C0001DD8C0E07420120D13D0E0F07464120D28
:1016D00013121D96121DFA120D13121DB812132D9E
:1016E0007421120D13A882A983741102179B7464CC
:1016F000120D13121E10120D13121E38120D13129A
:101700001E10120D13E02402FAA3E03400FB7464EF
:10171000120D13121E227402120D1312132DE8491A
:10172000700C7402120D1374ADF0A37403F0121D4B
:101730002950047E107F277408120D13E4F0A38053
:10174000087408120D13121D33F07402120D1312D7
:101750001D6C88828983A3AA82AB837402120D1345
:10176000121E2A88828983E0600A7408120D1312FF
:101770001D7040CD7402120D13121D4A7411120D0A
:101780001312132D7408120D13121DAEF9741112D9
:101790000D13E028F8A3E039F97402120D13E8F0F4
:1017A000A3E9021BEA740D120D13E06008EE4F70FE
:1017B000047E017F00741E120D1374BCF0A3740329
:1017C000F07464120D13121E10120D1312132D74E7
:1017D00004120D13E0647070327406120D13121EA1
:1017E00006120D13121E40120D13121DFA120D13C4
:1017F000121DB812132D741A120D137410121E4AF2
:10180000A3F07405120D13E40218F8EAA2E07406BE
:10181000501B120D13121D96120BD47413120D13BC
:10182000120BE07406120D13E024048012120D1343
:10183000121E06120D13121E40120D13E024021286
:101840001DFD120D13121DB812132D7404120D1369
:10185000E0646F7009741A120D137408809FE064BD
:10186000757093741A120D13740A80917464120DBA
:1018700013121E10120D1312132DEAA2E07406505B
:1018800015120D13121D967808120BAA7406120D6C
:1018900013E02404801B120D13121DD6F508A3E0DB
:1018A000F5093395E0F50AF50B7406120D13E024E3
:1018B00002121DFD120D13121E51120D1378081283
:1018C0000BB99003D978081202F740217405120D64
:1018D00013742DF07413120D137808120BAA7808E4
:1018E000120B5A7413120D137808120BB9741A12D2
:1018F0000D13740A121E4AA3F07451120D13A8821C
:10190000A9837402120D1312132D7411120D1312E8
:101910001E54120D13120BD4E8494A4B600A741975
:10192000120D137401F0800E7419120D13E4F0EE11
:101930004F70030219E27402120D13121D90120D62
:1019400013121E54120D13780C120BAA741A120DD6
:10195000137808120BAA780C7908120AE8741E1280
:101960000D13E02508F8A3E035098882F583E0C06F
:10197000E07402120D13121D96D0E0F07413120DD4
:1019800013780C120BAA741A120D137808120BAAF2
:10199000780C7908120AE87413120D13780C120BE4
:1019A000B97413120D13120BD4E8494A4B70871205
:1019B0001D29502E740E120D13E060267405120DB1
:1019C00013E06004D2F08002C2F0740A120D131208
:1019D0001D3C800E7402120D13121E30120D1312D4
:1019E0001DA77402120D13121D4A7451120D13C05B
:1019F00082C0837402120D13121D5CD083D082E565
:101A000082C39AFAE5839BFBC3EA9EEB121D7940E1
:101A1000C3740D120D13E07003021BEB7419120D49
:101A200013E0A2E04003021BEB7404120D13E06408
:101A3000786005E064587010E088828983F0E824BB
:101A4000FF18E934FFF98017E0646F6003021BEBB5
:101A50007402120D13121DCB64307003021BEB7461
:101A600002120D13121E30120D13121D9674300245
:101A70001BEA7408120D137401F0A3E4F07404124D
:101A80000D13E024FEF0EE4F700F7E018012E4F0A3
:101A90007408120D13E4F0A3F0121D2950047E0601
:101AA0007F007464120D13121E10120D13121E38D3
:101AB000120D13121D96780C120BAA7406120D1338
:101AC000E02404121DFD120D13121E51120D137885
:101AD0000C120BB99003D97808120BAA780C79086C
:101AE0001204F750227405120D13742DF0741312A2
:101AF0000D137808120BAAE50BB2E7F50B7413125D
:101B00000D137808120BB9740A120D137420120DFC
:101B10001D8909E028F8A3E03509F97402120D13B4
:101B200012132D740D120D13E0F5087808120DF143
:101B30007409120D13E0F5087808120DF1740412FF
:101B40000D13120E008E088F097808120DED740A1D
:101B5000120D13E0F97419120D13120BC81202D9E9
:101B60007406120CDD7411120D13121E2A740E125B
:101B70000D13E060767405120D13E06004D2F0805E
:101B800002C2F0740A120D13121D3C7411120D13CF
:101B9000C082C0837402120D13121D6CD083D082D8
:101BA000E0C398F8A3E099F9C3E89EE9121D7950C3
:101BB0003A7402120D13121D90120D13121E3012E0
:101BC0000D13121DA780C4851182851283121D5327
:101BD0001213267402120D1374CDF0A37403F07463
:101BE00011120D1374D0F0A37403F07411120D13BD
:101BF000C082C0837402120D13121D6CD083D08278
:101C0000E0C398FEA3E099FF740A120D13121D7031
:101C1000500A7408120D13E4F0A380307405120DFD
:101C200013E06004D2F08002C2F0740A120D13E0D7
:101C3000C39EFAA3E09FFBA2F0E433F8EA98F8EB26
:101C40009400F97408120D13E8F0A3E9F0740C1273
:101C50000D13E0702B80197462120D13121D6212A5
:101C60000D13121D96120D35740F120D13121E77DF
:101C70007408120D13121E16120D1312130350D7EF
:101C80007405120D13E060517462120D13121D5C85
:101C90007405120D13E0F97417120D13121D96122C
:101CA0000D35802D7462120D13121D5C7402120D1D
:101CB00013121DD6F97417120D13121D96120D353D
:101CC0007402120D13E0121D207402120D13121370
:101CD0002D740F120D13121E77EE24FF1EEF34FF2A
:101CE000FFC3121D2B50BD740C120D13E0700302C4
:101CF00013837408120D13121E16120D1312130300
:101D000050030213837462120D13121D62120D131D
:101D1000121D96120D35740F120D13121E7780D2FC
:101D20002401F8A3E03400F922C3EF9400A2D265A5
:101D3000D03322E02401F0A3E0340022A2F0E43307
:101D4000F8E098FEA3E09400FF22121D4E22121D1F
:101D500053F922E024FFF8A3E034FF22E0FAA3E0E5
:101D6000FB22E0FAA3E0FB7920741722121DF42273
:101D7000C3E09EA3E0121D79229FA2D265D0332238
:101D8000121D8422A3E03400F9851182851283227A
:101D9000121D4E740222121D9A22121D9E22E0F87C
:101DA000A3E0F583888222121D9A7430F022121D5E
:101DB000F4C3E498F8E49922121DBC22E0FAA3E0EF
:101DC000F5838A8222851182851283121DBCE0224E
:101DD000851182851283E0F8121DA0E02285118210
:101DE000851283121D9AE0F822121DED22121D9E0B
:101DF000121DF422E0F8A3E0F922E02402F8A3E0A7
:101E00003400F9746422121DEDE8FAE9FB74132220
:101E1000121DED740622E024FFF0A3E034FFF074FD
:101E20000822E0FCA3E0F5838C82EAF0A3EBF02229
:101E3000E8F0A3E9F0740222E8F0A3E9F0740622C6
:101E4000EAF0A3EB121E4A740622F0A3E4F0A3F01A
:101E500022121DBCE8F0A3E9F0741322121E6022C6
:101E6000F0851182851283E022121E60121D9FE010
:101E700022851182851283E02401F0A3E03400F072
:101E800022E8F0A3E9121E602401F8121D84E8F094
:101E9000A3E92274EF120D3774DE120CC7EAFEEBD1
:101EA000FF8C0C8D0D7433120D13E0F508A3E0F5D3
:101EB000097435120D13E0F50AA3E0F50B850C82C9
:101EC000850D83C3E09402A3E09400A2D265D033D1
:101ED0005003022077850C82850D83E0F8A3E0F99A
:101EE000E875F002A4C8AAF075F000A42AFA75F00B
:101EF00002E9A42AF9EE28F8EF39F9E824FEF58280
:101F0000E934FFF583E0FAA3E0FB850C82850D83BD
:101F1000E0F8A3E0F9E875F002A4C8ACF075F000B1
:101F2000A42CFC75F002E9A42CF9EE28F8EF39F99D
:101F3000E824FCF582E934FFF583E06A7003A3E04E
:101F40006B70030220777A0A7B021202D3850C821F
:101F5000850D83E064047004A3E064006003022044
:101F6000297A247B021202D3850C82850D83E0F846
:101F7000A3E0F9E875F002A4C8AAF075F000A42A5D
:101F8000FA75F002E9A42AF9EE28F8EF39F9E82405
:101F9000FCF582E934FFF583E0FAA3E0FB850A82D1
:101FA000850B83E0F8A3E0F9E875F002A4C8ACF073
:101FB00075F000A42CFC75F002E9A42CF9E50828C2
:101FC000F582E50939F583EAF0A3EBF0850A82850D
:101FD0000B83E02401F0A3E03400F0850C82850D32
:101FE00083E0F8A3E0F9E875F002A4C8AAF075F060
:101FF00000A42AFA75F002E9A42AF9EE28F8EF39CC
:10200000F9E824FEF582E934FFF583E0F8A3E0F96E
:102010008E828F83E8F0A3E9F0850C82850D8374AE
:1020200001F0A37400F0022119850C82850D83E074
:10203000F8A3E0F9E875F002A4C8AAF075F000A4CE
:102040002AFA75F002E9A42AF9EE28F8EF39F9E83E
:1020500024FEF582E934FFF583E0F8A3E0F98E82EF
:102060008F83E8F0A3E9F0850C82850D837401F07D
:10207000A37400F0022119850C82850D83E06404AD
:102080007004A3E0640060030221197A4C7B021201
:1020900002D37A247B021202D3850C82850D83E061
:1020A000F8A3E0F9E875F002A4C8AAF075F000A45E
:1020B0002AFA75F002E9A42AF9EE28F8EF39F9E8CE
:1020C00024FEF582E934FFF583E0FAA3E0FB850AFC
:1020D00082850B83E0F8A3E0F9E875F002A4C8ACB0
:1020E000F075F000A42CFC75F002E9A42CF9E508C9
:1020F00028F582E50939F583EAF0A3EBF0850A8239
:10210000850B83E02401F0A3E03400F0850C828588
:102110000D837400F0A37400F0850A82850B83E0C0
:1021200064047004A3E0640060030224BE7A667B4A
:10213000021202D37E007F00804F900277AC11AD77
:10214000127402120BF9EEF8EFF9E875F002A4C868
:10215000AAF075F000A42AFA75F002E9A42AF9E5BC
:102160000828F582E50939F583120E007C797D0295
:102170007402120D251202F17402120CDDAA11ABC9
:10218000121202D30EEE70010FC3EE9404EF94000E
:10219000A2D265D03340A37A7C7B021202D374377B
:1021A000120D13E0FEA3E0FF8E828F83E0F8A3E020
:1021B000F9E84960030222F6750C01750D007800FC
:1021C0007900800508E8700109C3E89404E99400E7
:1021D000A2D265D03340030222CEE8FAE9FBEA75C9
:1021E000F002A4CAACF075F000A42CFC75F002EB70
:1021F000A42CFBE5082AF582E5093BF583E0FCA366
:10220000E0FDE8FAE9FBEA75F002A4CA85F00E7574
:10221000F000A4250EF50E75F002EBA4250EFB745C
:10222000382AF58274033BF583E06C7003A3E06DFC
:102230006092750C00750D007A7E7B021202D385C8
:102240000A82850B837403F0A37400F07800790090
:10225000805BE8FAE9FBEA75F002A4CAACF075F01D
:1022600000A42CFC75F002EBA42CFBE5082AF582F7
:10227000E5093BF583A3A3E0FCA3E0FDE8FAE9FB55
:10228000EA75F002A4CA85F00E75F000A4250EF5DB
:102290000E75F002EBA4250EFBE5082AF582E50990
:1022A0003BF583ECF0A3EDF008E8700109C3E89476
:1022B00003E99400A2D265D033409785088285094E
:1022C00083A3A3A3A3A3A37400F0A37400F0E50C5D
:1022D000450D60227AAB7B021202D3850A82850B00
:1022E000837400F0A37400F08E828F837401F0A3D6
:1022F0007400F00224BE7439120D13E0F8A3E0F963
:10230000880A890B850A82850B83E0F8A3E0F9E847
:102310004960030223B0750C01750D007800790047
:10232000800508E8700109C3E89404E99400A2D28A
:1023300065D033505EE8FAE9FBEA75F002A4CAAC56
:10234000F075F000A42CFC75F002EBA42CFBE50862
:102350002AF582E5093BF583E0FCA3E0FDE8FAE914
:10236000FBEA75F002A4CA85F00E75F000A4250EF4
:10237000F50E75F002EBA4250EFB74402AF582746D
:10238000033BF583E06C7003A3E06D6095750C0072
:10239000750D00E50C450D60177ABB7B021202D368
:1023A000850A82850B837401F0A37400F00224BEB9
:1023B000750C00750D000224A108E8700109C3E83E
:1023C0009404E99400A2D265D0334003022453E878
:1023D000FAE9FBEA75F002A4CAACF075F000A42C8F
:1023E000FC75F002EBA42CFBE5082AF582E5093B1D
:1023F000F583E0F50AA3E0F50BE8FCE9FDEC75F0E8
:1024000002A4CCAAF075F000A42AFA75F002EDA49B
:102410002AFDAA0CAB0DEA75F008A4CA85F0107568
:10242000F000A42510F51075F008EBA42510FB743E
:10243000482AFA74033BFBEA2CF582EB3DF583E076
:10244000650A7004A3E0650B70030223B9750E00E2
:10245000750F007401650E70047400650F703A8E7C
:10246000828F83E064017004A3E06400702B90020B
:10247000C97402120D2D7420120BF9780C120DED97
:102480007CE97D027404120D251202F17402120C13
:10249000DD7402120D251202D3050CE50C70020545
:1024A0000DC3E50C940AE50D9400A2D265D033501B
:1024B0000D750E01750F00780079000223BE74229D
:1024C000120CDD7F09020DA374A8120CC775080059
:1024D000750900750A00750B00750C40750D0078C4
:1024E0000C120DED7C007D00741A120D251202E510
:1024F0007402120CDD9002FF7410120D2D7408127C
:102500000BF912028B12027F7A0079001202C78542
:1025100011828512837400F0A37400F07406120D0A
:10252000137400F0A37400F07404120D137400F01F
:10253000A37400F07402120D137400F0A37400F081
:102540000226067A297B031202D385118285128323
:10255000E0F8A3E0F9E875F002A4C8AAF075F0006D
:10256000A42AFA75F002E9A42AF97408120D13E5F9
:102570008228F582E58339F5837400F0A37400F0B6
:10258000851182851283E02401F0A3E03400F07409
:1025900002120D1D880889097808120DED740612C3
:1025A0000D1D880889097808120DED740A120D1D99
:1025B000880889097808120DED7416120D1D880817
:1025C00089097808120DED7408120D2D7410120D82
:1025D000251202C17408120CDD7AC87B0012029722
:1025E0007402120D13E0F8A3E0F9E84960187404CE
:1025F000120D137400F0A37400F07402120D137422
:1026000000F0A37400F01202858A088B098C0A8DF1
:102610000B7808120DE97C077D03741C120D25123E
:1026200002F17404120CDD7418120D251202D390FD
:102630000398780C120BAA7808790C1204A84003AE
:102640000225437A1A7B031202D3851182851283F5
:10265000E0F8A3E0F9E875F002A4C8AAF075F0006C
:10266000A42AFA75F002E9A42AF97408120D13E5F8
:102670008228F582E58339F5837401F0A37400F0B4
:10268000851182851283E02401F0A3E03400F0027A
:10269000258F800B0000000000000000000000EA11
:1026A000F8EBF9E824FFFAE934FFFBE84970E502AA
:1026B000006CC082C08353F3FC43FD03D2817A0ACD
:1026C0007B0012029DD2807A0A7B0012029DD08389
:1026D000D08202006CC082C083D281D2807A057B16
:1026E0000012029DC2817A057B0012029DC280D039
:1026F00083D08202006CC082C083C281D2807A05FE
:102700007B0012029DD2817A057B0012029DD0834C
:10271000D08202006C74F7120D37E9FFC2807E0090
:102720008020C2817A057B0012029DD2807A057BCF
:102730000012029DC2807A057B0012029DEFC33316
:10274000FF0EEEC394085009EFA2E750D5D2818066
:10275000D37A027B0012029DD281D2807A027B0062
:1027600012029DA28150047901800BC2807A327BD3
:102770000012029D79007F01020DA374F7120D373C
:1027800089087E00C280D2817F008016C3EE92E06D
:10279000FE7A0A7B0012029DC2807A147B0012022C
:1027A0009D0FEFC394085018D2807A1E7B0012024E
:1027B0009DEEC333FEA28150D3D3EE92E0FE80D1D2
:1027C000AF08E508A2E092817A0A7B0012029DD24E
:1027D000807A327B0012029DC2807A327B00120224
:1027E0009DEEF97F01020DA374F7120D37E9FFEAA0
:1027F000FE1202A9EFF91202B5E97006EEF9120213
:10280000B5E91202AF79017F01020DA374F5120D33
:10281000378909EAFEEBFF8C0A1202A97401250927
:10282000F91202B5E9704A750800801A790012029F
:10283000BBE9C0E08E828F83D0E0F08E828F83A3CD
:10284000AE82AF830508AA087B00A80A7900E824B5
:10285000FFF8E934FFF9C3EA98EB99A2D265D033C7
:1028600040CA79011202BBE9C0E08E828F83D0E0BA
:10287000F01202AF79017F03020DA3C082C0831260
:1028800002A3D083D08202006C74F0120D377E0058
:102890007F0212027F7A017946120273E97A207967
:1028A00046120273E97A327B001202977C02EEFA3A
:1028B000EFFB7946120279E9900200E0F87900E432
:1028C000C8F9900201E0FA7B00E84AF508E94BF507
:1028D00009E4F50AF50B7808120338900202780C27
:1028E000120BAA7808790C120902AA08AB09AC0AE3
:1028F000AD0B7F08020DA374F0120D37E9FBEB60FE
:10290000708B0875090074077808120CB4E4F50A96
:10291000F50BEBF87900E875F072A4C8AAF075F031
:1029200000A42AFA75F072E9A42AF9880CE9F50DD9
:102930003395E0F50EF50F7808790C120B84E5C697
:1029400054077808120B6B85080C85090D850A0E53
:10295000850B0F850C08850D09850E0A850F0B90D8
:1029600002067808120B97E50C450D450E450F70D1
:10297000D67F08020DA374F4120D37EAFCEBFDECD0
:10298000F8EDF97AFA7B00120C5B880A890B850A4C
:1029900008850B09ECF8EDF97AFA7B00120C5B8ADA
:1029A0000A8B0BAE0AAF0B800579FA120291A808C8
:1029B000A909E824FFF508E934FFF509E84970E9B9
:1029C000EEF91202917F04020DA3C082C0838A82B5
:1029D0008B83122A57E9F08A828B83E02401FCA3BF
:1029E000E03400FD8A828B83ECF0A3EDF0D083D03D
:1029F0008202006C74F6120D3774FC120CC774025C
:102A0000120D13EAF0A3EBF0ECFAEDFB740E120DCD
:102A10001D851182851283E8F0A3E9F0A811A9129F
:102A2000880889097808120DED7404120D1D8808B4
:102A300089097808120DED7CEB7D021202DF740427
:102A4000120CDD7402120D13122A57E4F0740412F2
:102A50000CDD7F02020DA3E0F8A3E0F5838882225B
:102A600043F4C043F10253F5DF75F8C075FC0A75F5
:102A7000FA3BE94A42FB02006C89F9A2EA50FCC227
:102A8000EA02006C74F7120D37EAFEEBFF80128E3B
:102A9000828F83E0F91202CD8E828F83A3AE82AF44
:102AA000838E828F83E070E77F01020DA3C082C016
:102AB00083851182851283E0F8A3E0F9E84960126A
:102AC0008A828B83ECF0A3E824FF18E934FFF948ED
:102AD00070F2D083D08202006C53C6BFE59EA2E69E
:082AE00040FA53C6F802006C35
:0400000500000054A3
:00000001FF
